:020000040800F2
:1000000070060020550200083D0300083503000873
:100010003903000811030008610300080000000014
:100020000000000000000000000000004503000880
:100030001503000800000000410300084903000800
:100040006F0200086F0200086F0200086F020008CC
:100050006F0200086F0200086F0200086F020008BC
:100060006F0200086F0200086F0200086F020008AC
:100070006F0200086F0200086F0200086F0200089C
:100080006F0200086F0200086F0200086F0200088C
:100090006F0200086F0200086F0200086F0200087C
:1000A0006F0200086F0200086F0200086F0200086C
:1000B0006F0200086F0200086F0200086F0200085C
:1000C0006F0200086F0200086F0200086F0200084C
:1000D0006F0200086F0200086F0200086F0200083C
:1000E0006F0200086F0200086F0200086F0200082C
:1000F0006F0200086F0200086F0200086F0200081C
:100100006F0200086F0200086F0200086F0200080B
:100110006F0200086F0200086F0200086F020008FB
:100120006F0200086F0200086F0200086F020008EB
:100130006F0200086F0200086F0200086F020008DB
:100140006F0200086F0200086F0200086F020008CB
:100150006F0200086F0200086F0200086F020008BB
:100160006F0200086F0200086F0200086F020008AB
:100170006F0200086F0200086F0200080000000014
:100180006F0200086F02000800F002F800F052F859
:1001900014A696E8000CB244B344DA4501D100F04D
:1001A00049F8BAE80F000FA696E83000A5EB040561
:1001B00004EB0607AAEB0704A7F101074FEA1515A0
:1001C0004FEA3414A4F10104AC4201D300F032F838
:1001D00013F0010F18BFFB1A43F0010300F001F800
:1001E000DBE71847BC020000DC020000103A24BF25
:1001F00078C878C1FAD8520724BF30C830C144BF8C
:1002000004680C6070470000704700000023002461
:1002100000250026103A28BF78C1FBD8520728BF16
:1002200030C148BF0B6070471FB500F02BF91FBDF0
:1002300010B510BD00F031F81146FFF7F5FF00F0E2
:1002400091F800F04FF803B4FFF7F2FF03BC00F0A1
:1002500057F800000948804709480047FEE7FEE7D5
:10026000FEE7FEE7FEE7FEE7FEE7FEE7FEE7FEE766
:1002700004480549054A064B704700004D03000835
:100280008901000870000020700600207002002024
:1002900070020020704770477047754600F02CF8D8
:1002A000AE4605006946534620F00700854618B063
:1002B00020B5FFF7DDFFBDE820404FF000064FF00E
:1002C00000074FF000084FF0000BAC46ACE8C00947
:1002D000ACE8C009ACE8C009ACE8C00921F00701EE
:1002E0008D46704710B50446AFF300802046BDE848
:1002F0001040FFF7A8BF000000487047080000202A
:1003000001491820ABBEFEE726000200704700003E
:10031000FEE700007047000040F2000040F2680174
:10032000C2F20000C2F2000100780A6810440860BE
:1003300070470000FEE70000FEE70000FEE7000057
:100340007047000070470000FFF7E6BF4EF6885088
:10035000CEF20000016841F47001016070470000B6
:10036000FEE7000082B043F63000C4F202000168EC
:1003700042F2107C41F008010160016941F0040182
:10038000016140F60041C4F20201086820F04050CB
:100390000860086840F000500860486A20F070600B
:1003A00048624A6A40F61C0042F00072C4F2000043
:1003B0004A620721C16042F20F71016100210162AE
:1003C000026822F0FF020260026842F060020260EE
:1003D000026842F008020260426842F480724260A1
:1003E00050F81C2C42F0800240F81C2C50F8082CCD
:1003F00042F0010240F8082C50F81C3C43F2005235
:10040000C0F20C0243F0010340F81C3CC0F820C0CD
:100410000191019B934217D2019B01330193019BF0
:10042000934211D2019B01330193019B93420BD262
:10043000019B01330193019B934205D2019B013340
:100440000193019B9342E7D301620091009B934289
:10045000DCD2009B01330093009B9342D6D2009BD9
:1004600001330093009B9342D0D2009B0133009351
:10047000009B9342CAD2009B01330093009B93429E
:10048000E7D3C3E7F1EE100A4FF6FF71C0F2C031B7
:1004900020EA010040F04070E1EE100A70470000D1
:1004A000C00400080000002008000000EC01000863
:1004B000C804000808000020680600000C020008BC
:0804C000010000001000000023
:040000050800018965
:00000001FF
